{
  "contractName": "Collateral",
  "abi": [
    {
      "inputs": [
        {
          "internalType": "contract SimpleERC20Token",
          "name": "_token",
          "type": "address"
        },
        {
          "internalType": "contract Loan",
          "name": "_loan",
          "type": "address"
        },
        {
          "internalType": "uint256",
          "name": "_collateralAmount",
          "type": "uint256"
        }
      ],
      "stateMutability": "nonpayable",
      "type": "constructor"
    },
    {
      "inputs": [],
      "name": "collateralAmount",
      "outputs": [
        {
          "internalType": "uint256",
          "name": "",
          "type": "uint256"
        }
      ],
      "stateMutability": "view",
      "type": "function"
    },
    {
      "inputs": [],
      "name": "loan",
      "outputs": [
        {
          "internalType": "contract Loan",
          "name": "",
          "type": "address"
        }
      ],
      "stateMutability": "view",
      "type": "function"
    },
    {
      "inputs": [],
      "name": "token",
      "outputs": [
        {
          "internalType": "contract SimpleERC20Token",
          "name": "",
          "type": "address"
        }
      ],
      "stateMutability": "view",
      "type": "function"
    },
    {
      "inputs": [],
      "name": "releaseCollateral",
      "outputs": [],
      "stateMutability": "nonpayable",
      "type": "function"
    }
  ],
  "bytecode": "0x60806040523480156200001157600080fd5b5060405162000b9e38038062000b9e8339818101604052810190620000379190620001c6565b826000806101000a81548173ffffffffffffffffffffffffffffffffffffffff021916908373ffffffffffffffffffffffffffffffffffffffff16021790555081600160006101000a81548173ffffffffffffffffffffffffffffffffffffffff021916908373ffffffffffffffffffffffffffffffffffffffff1602179055508060028190555050505062000222565b600080fd5b600073ffffffffffffffffffffffffffffffffffffffff82169050919050565b6000620000fa82620000cd565b9050919050565b60006200010e82620000ed565b9050919050565b620001208162000101565b81146200012c57600080fd5b50565b600081519050620001408162000115565b92915050565b60006200015382620000ed565b9050919050565b620001658162000146565b81146200017157600080fd5b50565b60008151905062000185816200015a565b92915050565b6000819050919050565b620001a0816200018b565b8114620001ac57600080fd5b50565b600081519050620001c08162000195565b92915050565b600080600060608486031215620001e257620001e1620000c8565b5b6000620001f2868287016200012f565b9350506020620002058682870162000174565b92505060406200021886828701620001af565b9150509250925092565b61096c80620002326000396000f3fe608060405234801561001057600080fd5b506004361061004c5760003560e01c80636665b6211461005157806392d09ceb1461005b578063d285b7b414610079578063fc0c546a14610097575b600080fd5b6100596100b5565b005b61006361049d565b6040516100709190610506565b60405180910390f35b6100816104a3565b60405161008e91906105a0565b60405180910390f35b61009f6104c9565b6040516100ac91906105dc565b60405180910390f35b600160009054906101000a900473ffffffffffffffffffffffffffffffffffffffff1673ffffffffffffffffffffffffffffffffffffffff1663bcead63e6040518163ffffffff1660e01b8152600401602060405180830381865afa158015610122573d6000803e3d6000fd5b505050506040513d601f19601f82011682018060405250810190610146919061063a565b73ffffffffffffffffffffffffffffffffffffffff163373ffffffffffffffffffffffffffffffffffffffff16146101b3576040517f08c379a00000000000000000000000000000000000000000000000000000000081526004016101aa906106ea565b60405180910390fd5b600160009054906101000a900473ffffffffffffffffffffffffffffffffffffffff1673ffffffffffffffffffffffffffffffffffffffff1663786716fe6040518163ffffffff1660e01b8152600401602060405180830381865afa158015610220573d6000803e3d6000fd5b505050506040513d601f19601f820116820180604052508101906102449190610736565b4211610285576040517f08c379a000000000000000000000000000000000000000000000000000000000815260040161027c906107d5565b60405180910390fd5b60008054906101000a900473ffffffffffffffffffffffffffffffffffffffff1673ffffffffffffffffffffffffffffffffffffffff1663a9059cbb600160009054906101000a900473ffffffffffffffffffffffffffffffffffffffff1673ffffffffffffffffffffffffffffffffffffffff16637df1f1b96040518163ffffffff1660e01b8152600401602060405180830381865afa15801561032e573d6000803e3d6000fd5b505050506040513d601f19601f82011682018060405250810190610352919061063a565b6002546040518363ffffffff1660e01b8152600401610372929190610816565b6020604051808303816000875af1158015610391573d6000803e3d6000fd5b505050506040513d601f19601f820116820180604052508101906103b59190610877565b6103f4576040517f08c379a00000000000000000000000000000000000000000000000000000000081526004016103eb90610916565b60405180910390fd5b600160009054906101000a900473ffffffffffffffffffffffffffffffffffffffff1673ffffffffffffffffffffffffffffffffffffffff1663bcead63e6040518163ffffffff1660e01b8152600401602060405180830381865afa158015610461573d6000803e3d6000fd5b505050506040513d601f19601f82011682018060405250810190610485919061063a565b73ffffffffffffffffffffffffffffffffffffffff16ff5b60025481565b600160009054906101000a900473ffffffffffffffffffffffffffffffffffffffff1681565b60008054906101000a900473ffffffffffffffffffffffffffffffffffffffff1681565b6000819050919050565b610500816104ed565b82525050565b600060208201905061051b60008301846104f7565b92915050565b600073ffffffffffffffffffffffffffffffffffffffff82169050919050565b6000819050919050565b600061056661056161055c84610521565b610541565b610521565b9050919050565b60006105788261054b565b9050919050565b600061058a8261056d565b9050919050565b61059a8161057f565b82525050565b60006020820190506105b56000830184610591565b92915050565b60006105c68261056d565b9050919050565b6105d6816105bb565b82525050565b60006020820190506105f160008301846105cd565b92915050565b600080fd5b600061060782610521565b9050919050565b610617816105fc565b811461062257600080fd5b50565b6000815190506106348161060e565b92915050565b6000602082840312156106505761064f6105f7565b5b600061065e84828501610625565b91505092915050565b600082825260208201905092915050565b7f4f6e6c79206c656e6465722063616e2072656c6561736520636f6c6c6174657260008201527f616c000000000000000000000000000000000000000000000000000000000000602082015250565b60006106d4602283610667565b91506106df82610678565b604082019050919050565b60006020820190508181036000830152610703816106c7565b9050919050565b610713816104ed565b811461071e57600080fd5b50565b6000815190506107308161070a565b92915050565b60006020828403121561074c5761074b6105f7565b5b600061075a84828501610721565b91505092915050565b7f436f6c6c61746572616c2063616e206f6e6c792062652072656c65617365642060008201527f616674657220746865206c6f616e206861732065787069726564000000000000602082015250565b60006107bf603a83610667565b91506107ca82610763565b604082019050919050565b600060208201905081810360008301526107ee816107b2565b9050919050565b60006108008261056d565b9050919050565b610810816107f5565b82525050565b600060408201905061082b6000830185610807565b61083860208301846104f7565b9392505050565b60008115159050919050565b6108548161083f565b811461085f57600080fd5b50565b6000815190506108718161084b565b92915050565b60006020828403121561088d5761088c6105f7565b5b600061089b84828501610862565b91505092915050565b7f4661696c656420746f207472616e7366657220636f6c6c61746572616c20626160008201527f636b20746f20626f72726f776572000000000000000000000000000000000000602082015250565b6000610900602e83610667565b915061090b826108a4565b604082019050919050565b6000602082019050818103600083015261092f816108f3565b905091905056fea26469706673582212207f766b34dba74e78d743192fc5beb8577cb4b871ebd079f727db786f594773f464736f6c63430008130033",
  "immutableReferences": {},
  "source": "// SPDX-License-Identifier: MIT\npragma solidity >=0.4.22 <0.9.0;\n\nimport \"./ierc20token.sol\";\nimport \"./loan.sol\";\n\ncontract Collateral {\n    SimpleERC20Token public token;\n    Loan public loan;\n    uint256 public collateralAmount;\n\n    constructor(SimpleERC20Token _token, Loan _loan, uint256 _collateralAmount) {\n        token = _token;\n        loan = _loan;\n        collateralAmount = _collateralAmount;\n    }\n\n    function releaseCollateral() public {\n        require(msg.sender == loan.lender(), \"Only lender can release collateral\");\n        require(block.timestamp > loan.dueDate(), \"Collateral can only be released after the loan has expired\");\n\n        require(token.transfer(loan.borrower(), collateralAmount), \"Failed to transfer collateral back to borrower\");\n\n        selfdestruct(payable(loan.lender()));\n    }\n}\n",
  "sourcePath": "C:\\Users\\JosephOkoth\\Desktop\\coding_practice\\solidity_loan_smart_contract\\contracts\\collateral.sol",
  "compiler": {
    "name": "solc",
    "version": "0.8.19+commit.7dd6d404.Emscripten.clang"
  },
  "schemaVersion": "3.4.13",
  "updatedAt": "2023-06-02T21:40:57.093Z",
  "devdoc": {
    "kind": "dev",
    "methods": {},
    "version": 1
  },
  "userdoc": {
    "kind": "user",
    "methods": {},
    "version": 1
  }
}