{
  "contractName": "Loan",
  "abi": [
    {
      "inputs": [
        {
          "internalType": "address payable",
          "name": "_lender",
          "type": "address"
        },
        {
          "internalType": "address payable",
          "name": "_borrower",
          "type": "address"
        },
        {
          "internalType": "contract SimpleERC20Token",
          "name": "_token",
          "type": "address"
        },
        {
          "internalType": "uint256",
          "name": "_collateralAmount",
          "type": "uint256"
        },
        {
          "internalType": "uint256",
          "name": "_payoffAmount",
          "type": "uint256"
        },
        {
          "internalType": "uint256",
          "name": "_loanDuration",
          "type": "uint256"
        }
      ],
      "stateMutability": "nonpayable",
      "type": "constructor"
    },
    {
      "anonymous": false,
      "inputs": [],
      "name": "LoanPaid",
      "type": "event"
    },
    {
      "inputs": [],
      "name": "borrower",
      "outputs": [
        {
          "internalType": "address payable",
          "name": "",
          "type": "address"
        }
      ],
      "stateMutability": "view",
      "type": "function"
    },
    {
      "inputs": [],
      "name": "collateralAmount",
      "outputs": [
        {
          "internalType": "uint256",
          "name": "",
          "type": "uint256"
        }
      ],
      "stateMutability": "view",
      "type": "function"
    },
    {
      "inputs": [],
      "name": "dueDate",
      "outputs": [
        {
          "internalType": "uint256",
          "name": "",
          "type": "uint256"
        }
      ],
      "stateMutability": "view",
      "type": "function"
    },
    {
      "inputs": [],
      "name": "lender",
      "outputs": [
        {
          "internalType": "address payable",
          "name": "",
          "type": "address"
        }
      ],
      "stateMutability": "view",
      "type": "function"
    },
    {
      "inputs": [],
      "name": "payoffAmount",
      "outputs": [
        {
          "internalType": "uint256",
          "name": "",
          "type": "uint256"
        }
      ],
      "stateMutability": "view",
      "type": "function"
    },
    {
      "inputs": [],
      "name": "token",
      "outputs": [
        {
          "internalType": "contract SimpleERC20Token",
          "name": "",
          "type": "address"
        }
      ],
      "stateMutability": "view",
      "type": "function"
    },
    {
      "inputs": [],
      "name": "payLoan",
      "outputs": [],
      "stateMutability": "payable",
      "type": "function"
    },
    {
      "inputs": [],
      "name": "repossess",
      "outputs": [],
      "stateMutability": "nonpayable",
      "type": "function"
    }
  ],
  "bytecode": "0x60806040523480156200001157600080fd5b5060405162000bac38038062000bac833981810160405281019062000037919062000225565b856000806101000a81548173ffffffffffffffffffffffffffffffffffffffff021916908373ffffffffffffffffffffffffffffffffffffffff16021790555084600160006101000a81548173ffffffffffffffffffffffffffffffffffffffff021916908373ffffffffffffffffffffffffffffffffffffffff16021790555083600260006101000a81548173ffffffffffffffffffffffffffffffffffffffff021916908373ffffffffffffffffffffffffffffffffffffffff16021790555082600381905550816004819055508042620001159190620002f0565b6005819055505050505050506200032b565b600080fd5b600073ffffffffffffffffffffffffffffffffffffffff82169050919050565b600062000159826200012c565b9050919050565b6200016b816200014c565b81146200017757600080fd5b50565b6000815190506200018b8162000160565b92915050565b60006200019e826200012c565b9050919050565b6000620001b28262000191565b9050919050565b620001c481620001a5565b8114620001d057600080fd5b50565b600081519050620001e481620001b9565b92915050565b6000819050919050565b620001ff81620001ea565b81146200020b57600080fd5b50565b6000815190506200021f81620001f4565b92915050565b60008060008060008060c0878903121562000245576200024462000127565b5b60006200025589828a016200017a565b96505060206200026889828a016200017a565b95505060406200027b89828a01620001d3565b94505060606200028e89828a016200020e565b9350506080620002a189828a016200020e565b92505060a0620002b489828a016200020e565b9150509295509295509295565b7f4e487b7100000000000000000000000000000000000000000000000000000000600052601160045260246000fd5b6000620002fd82620001ea565b91506200030a83620001ea565b9250828201905080821115620003255762000324620002c1565b5b92915050565b610871806200033b6000396000f3fe60806040526004361061007b5760003560e01c806392d09ceb1161004e57806392d09ceb146100f7578063bcead63e14610122578063be1abba51461014d578063fc0c546a146101785761007b565b8063472eb03d14610080578063786716fe1461008a57806379cc90c4146100b55780637df1f1b9146100cc575b600080fd5b6100886101a3565b005b34801561009657600080fd5b5061009f61035e565b6040516100ac9190610541565b60405180910390f35b3480156100c157600080fd5b506100ca610364565b005b3480156100d857600080fd5b506100e16104ac565b6040516100ee919061059d565b60405180910390f35b34801561010357600080fd5b5061010c6104d2565b6040516101199190610541565b60405180910390f35b34801561012e57600080fd5b506101376104d8565b604051610144919061059d565b60405180910390f35b34801561015957600080fd5b506101626104fc565b60405161016f9190610541565b60405180910390f35b34801561018457600080fd5b5061018d610502565b60405161019a9190610617565b60405180910390f35b6005544211156101e8576040517f08c379a00000000000000000000000000000000000000000000000000000000081526004016101df9061068f565b60405180910390fd5b600454341461022c576040517f08c379a0000000000000000000000000000000000000000000000000000000008152600401610223906106fb565b60405180910390fd5b600260009054906101000a900473ffffffffffffffffffffffffffffffffffffffff1673ffffffffffffffffffffffffffffffffffffffff1663a9059cbb600160009054906101000a900473ffffffffffffffffffffffffffffffffffffffff166003546040518363ffffffff1660e01b81526004016102ad92919061073c565b6020604051808303816000875af11580156102cc573d6000803e3d6000fd5b505050506040513d601f19601f820116820180604052508101906102f091906107a2565b6102f957600080fd5b7f8bb0a19f3c449c5f333f46e05a21a731e09b6f6bd145ee30e45d3e74e296990b60405160405180910390a160008054906101000a900473ffffffffffffffffffffffffffffffffffffffff1673ffffffffffffffffffffffffffffffffffffffff16ff5b60055481565b60055442116103a8576040517f08c379a000000000000000000000000000000000000000000000000000000000815260040161039f9061081b565b60405180910390fd5b600260009054906101000a900473ffffffffffffffffffffffffffffffffffffffff1673ffffffffffffffffffffffffffffffffffffffff1663a9059cbb60008054906101000a900473ffffffffffffffffffffffffffffffffffffffff166003546040518363ffffffff1660e01b815260040161042792919061073c565b6020604051808303816000875af1158015610446573d6000803e3d6000fd5b505050506040513d601f19601f8201168201806040525081019061046a91906107a2565b61047357600080fd5b60008054906101000a900473ffffffffffffffffffffffffffffffffffffffff1673ffffffffffffffffffffffffffffffffffffffff16ff5b600160009054906101000a900473ffffffffffffffffffffffffffffffffffffffff1681565b60035481565b60008054906101000a900473ffffffffffffffffffffffffffffffffffffffff1681565b60045481565b600260009054906101000a900473ffffffffffffffffffffffffffffffffffffffff1681565b6000819050919050565b61053b81610528565b82525050565b60006020820190506105566000830184610532565b92915050565b600073ffffffffffffffffffffffffffffffffffffffff82169050919050565b60006105878261055c565b9050919050565b6105978161057c565b82525050565b60006020820190506105b2600083018461058e565b92915050565b6000819050919050565b60006105dd6105d86105d38461055c565b6105b8565b61055c565b9050919050565b60006105ef826105c2565b9050919050565b6000610601826105e4565b9050919050565b610611816105f6565b82525050565b600060208201905061062c6000830184610608565b92915050565b600082825260208201905092915050565b7f4c6f616e20686173206578706972656400000000000000000000000000000000600082015250565b6000610679601083610632565b915061068482610643565b602082019050919050565b600060208201905081810360008301526106a88161066c565b9050919050565b7f496e636f7272656374207061796f666620616d6f756e74000000000000000000600082015250565b60006106e5601783610632565b91506106f0826106af565b602082019050919050565b60006020820190508181036000830152610714816106d8565b9050919050565b6000610726826105e4565b9050919050565b6107368161071b565b82525050565b6000604082019050610751600083018561072d565b61075e6020830184610532565b9392505050565b600080fd5b60008115159050919050565b61077f8161076a565b811461078a57600080fd5b50565b60008151905061079c81610776565b92915050565b6000602082840312156107b8576107b7610765565b5b60006107c68482850161078d565b91505092915050565b7f4c6f616e20686173206e6f742065787069726564000000000000000000000000600082015250565b6000610805601483610632565b9150610810826107cf565b602082019050919050565b60006020820190508181036000830152610834816107f8565b905091905056fea2646970667358221220a4f07e24c73e0960794b1f4c7e27f59b22284f196dc1e3c89b540e5af1bb2e8664736f6c63430008130033",
  "immutableReferences": {},
  "source": "// SPDX-License-Identifier: MIT\npragma solidity >=0.4.22 <0.9.0;\n\nimport \"./ierc20token.sol\";\n\ncontract Loan {\n    address payable public lender; // Address of the lender\n    address payable public borrower; // Address of the borrower\n    SimpleERC20Token public token; // Reference to an ERC20 token contract\n    uint256 public collateralAmount; // Amount of collateral provided by the borrower\n    uint256 public payoffAmount; // Amount that needs to be repaid by the borrower\n    uint256 public dueDate; // Timestamp representing the due date for the loan\n\n    constructor(\n        address payable _lender,\n        address payable _borrower,\n        SimpleERC20Token _token,\n        uint256 _collateralAmount,\n        uint256 _payoffAmount,\n        uint256 _loanDuration\n    ) {\n        lender = _lender; // Set the lender address\n        borrower = _borrower; // Set the borrower address\n        token = _token; // Set the token reference\n        collateralAmount = _collateralAmount; // Set the collateral amount\n        payoffAmount = _payoffAmount; // Set the payoff amount\n        dueDate = block.timestamp + _loanDuration; // Calculate the due date based on the loan duration\n    }\n\n    event LoanPaid(); // Event emitted when the loan is paid off\n\n    function payLoan() public payable {\n        require(block.timestamp <= dueDate, \"Loan has expired\"); // Check if the current timestamp is before or equal to the due date\n        require(msg.value == payoffAmount, \"Incorrect payoff amount\"); // Check if the value sent with the transaction matches the payoff amount\n\n        require(token.transfer(borrower, collateralAmount)); // Transfer the collateral tokens to the borrower\n        emit LoanPaid(); // Emit the LoanPaid event to indicate that the loan has been paid off\n        selfdestruct(lender); // Destroy the contract and send any remaining Ether balance to the lender\n    }\n\n    function repossess() public {\n        require(block.timestamp > dueDate, \"Loan has not expired\"); // Check if the current timestamp is after the due date\n\n        require(token.transfer(lender, collateralAmount)); // Transfer the collateral tokens to the lender\n        selfdestruct(lender); // Destroy the contract and send any remaining Ether balance to the lender\n    }\n}\n",
  "sourcePath": "C:\\Users\\JosephOkoth\\Desktop\\coding_practice\\solidity_loan_smart_contract\\contracts\\loan.sol",
  "compiler": {
    "name": "solc",
    "version": "0.8.19+commit.7dd6d404.Emscripten.clang"
  },
  "schemaVersion": "3.4.13",
  "updatedAt": "2023-06-02T21:40:58.668Z",
  "devdoc": {
    "kind": "dev",
    "methods": {},
    "version": 1
  },
  "userdoc": {
    "kind": "user",
    "methods": {},
    "version": 1
  }
}